S00E00004D4F544F52312E7372656354
S113000045C0000060C000005EC000005CC000008D
S11300105AC0000058C0000056C0000054C0000080
S113002052C0000050C000004EC000004CC0000090
S11300304AC0000048C0000046C0000044C00000A0
S113004042C0000040C000003EC000003CC00000B0
S11300503AC0000038C0000036C0000034C00000C0
S113006032C0000030C000002EC000002CC00000D0
S11300702AC0000028C0000026C0000024C00000E0
S113008022C0000020C000001EC0000011241FBEBA
S1130090CFEFD0E1DEBFCDBF11E0A0E0B1E0E6E5F7
S11300A0F4E000E00BBF02C007900D92AA34B10740
S11300B0D9F721E0AAE4B1E001C01D92AB34B20744
S11300C0E1F70DD1C6C19CCFFC01718360835383DA
S11300D04283248381E08583FB01308181E090E0C9
S11300E002C0880F991F2A95E2F7809583238083A5
S11300F00895FC01A281B3818C9121E030E0048059
S113010002C0220F331F0A94E2F7282371F4858179
S1130110813059F42FEF30E792E021503040904085
S1130120E1F700C0000015820895222381F0858143
S113013081110FC02FEF30E782E021503040804022
S1130140E1F700C0000081E0858382E0089580E04B
S1130150089580E0089581B3836081BB88E480932F
S11301607000089584EA8093740080917400882359
S1130170E4F7089584E980937400089580937300EC
S113018084E880937400809174008823E4F70895D0
S1130190CF93DF93D82FC62FE5DF8D2FEFDF8C2F82
S11301A0EDDFE8DFDF91CF91089560914A016B7F25
S11301B060934A018EE4ECDF60914A0164606093CD
S11301C04A018EE4E5DF60914A016B7F60934A0146
S11301D08EE4DEDF8FE19CE10197F1F700C00000BF
S11301E00895CF93C82F80914A018F709C2F907FE0
S11301F0892B80934A01D9DF20E1C29FC0011124D9
S113020090914A019F70892B80934A01CEDFCF9150
S1130210089590914A019C7F90934A01E2CF0895FA
S113022090914A0191609D7F90934A01DACF08959D
S113023060914A01686060934A018EE4A9CF0895F1
S113024081706F7090E4899F600D1124862F80580F
S1130250E0CF08950F931F93CF938C01C0E002C0A9
S1130260DFDFCF5FF801EC0FF11D80818111F8CF42
S1130270CF911F910F910895CF93DF93EA01E0DFAF
S1130280CE01E8DFDF91CF91089565DF2FEF89EF8D
S113029090E0215080409040E1F700C0000083E0EE
S11302A0B8DF8FE39CE90197F1F700C0000083E019
S11302B0B0DF8FE99FE00197F1F700C0000083E011
S11302C0A8DF82E0A6DF88E2A4DF88E0A2DF81E085
S11302D0A0DF86E09EDF8CE09CDFAACF0895CF9359
S11302E0DF93CDB7DEB7E6970FB6F894DEBF0FBE47
S11302F0CDBF8FEF8093610020E043E350E064E3DF
S113030070E0CE010196E0DE21E043E350E064E3D7
S113031070E0CE010796D8DE22E043E350E064E3C8
S113032070E0CE010D96D0DE23E043E350E064E3B9
S113033070E0CE014396C8DE83B7826083BF83B783
S1130340886483BF83B7806283BF11BE87B3806133
S113035087BB9BDFCE010196CCDE8230D1F481E0F5
S11303608093620056DF8AE581BF8BE0E0E0F1E034
S1130370DE01599601900D928A95E1F7AE01475E30
S11303805F4F60E080E078DF4BE051E060E081E0C7
S113039073DFCE010796ADDE8230D9F483E080931B
S11303A0620081E036DF86E981BF8BE0E0E0F1E0C6
S11303B0DE01599601900D928A95E1F7AE01475EF0
S11303C05F4F60E080E058DF4AE151E060E081E0A7
S11303D053DFCE010D968DDE8230D9F487E0809311
S11303E0620081E016DF8AEF81BF8BE0E0E0F1E09C
S11303F0DE01599601900D928A95E1F7AE01475EB0
S11304005F4F60E080E038DF49E251E060E081E086
S113041033DFCE0143966DDE823009F09BCF10921C
S1130420620081E0F6DE11BE8BE0E0E0F1E0DE0187
S1130430599601900D928A95E1F7AE01475E5F4FA0
S113044060E080E019DF49E351E060E081E014DF1F
S109045081CFF894FFCFF8
S11304565041524B4A49484F4F4E0057494E44204B
S113046653746174733A3330250057494E4420530C
S1130476746174733A3635250057494E44205374D3
S11304866174733A313030250057494E4420537411
S10D04966174733A53544F50000090
S9030000FC
